{
  "_format": "hh-sol-artifact-1",
  "contractName": "RoboPunksNFT",
  "sourceName": "contracts/RoboPunksNFT.sol",
  "abi": [
    {
      "inputs": [],
      "stateMutability": "payable",
      "type": "constructor"
    },
    {
      "anonymous": false,
      "inputs": [
        {
          "indexed": true,
          "internalType": "address",
          "name": "owner",
          "type": "address"
        },
        {
          "indexed": true,
          "internalType": "address",
          "name": "approved",
          "type": "address"
        },
        {
          "indexed": true,
          "internalType": "uint256",
          "name": "tokenId",
          "type": "uint256"
        }
      ],
      "name": "Approval",
      "type": "event"
    },
    {
      "anonymous": false,
      "inputs": [
        {
          "indexed": true,
          "internalType": "address",
          "name": "owner",
          "type": "address"
        },
        {
          "indexed": true,
          "internalType": "address",
          "name": "operator",
          "type": "address"
        },
        {
          "indexed": false,
          "internalType": "bool",
          "name": "approved",
          "type": "bool"
        }
      ],
      "name": "ApprovalForAll",
      "type": "event"
    },
    {
      "anonymous": false,
      "inputs": [
        {
          "indexed": true,
          "internalType": "address",
          "name": "previousOwner",
          "type": "address"
        },
        {
          "indexed": true,
          "internalType": "address",
          "name": "newOwner",
          "type": "address"
        }
      ],
      "name": "OwnershipTransferred",
      "type": "event"
    },
    {
      "anonymous": false,
      "inputs": [
        {
          "indexed": true,
          "internalType": "address",
          "name": "from",
          "type": "address"
        },
        {
          "indexed": true,
          "internalType": "address",
          "name": "to",
          "type": "address"
        },
        {
          "indexed": true,
          "internalType": "uint256",
          "name": "tokenId",
          "type": "uint256"
        }
      ],
      "name": "Transfer",
      "type": "event"
    },
    {
      "inputs": [
        {
          "internalType": "address",
          "name": "to",
          "type": "address"
        },
        {
          "internalType": "uint256",
          "name": "tokenId",
          "type": "uint256"
        }
      ],
      "name": "approve",
      "outputs": [],
      "stateMutability": "nonpayable",
      "type": "function"
    },
    {
      "inputs": [
        {
          "internalType": "address",
          "name": "owner",
          "type": "address"
        }
      ],
      "name": "balanceOf",
      "outputs": [
        {
          "internalType": "uint256",
          "name": "",
          "type": "uint256"
        }
      ],
      "stateMutability": "view",
      "type": "function"
    },
    {
      "inputs": [
        {
          "internalType": "uint256",
          "name": "tokenId",
          "type": "uint256"
        }
      ],
      "name": "getApproved",
      "outputs": [
        {
          "internalType": "address",
          "name": "",
          "type": "address"
        }
      ],
      "stateMutability": "view",
      "type": "function"
    },
    {
      "inputs": [
        {
          "internalType": "address",
          "name": "owner",
          "type": "address"
        },
        {
          "internalType": "address",
          "name": "operator",
          "type": "address"
        }
      ],
      "name": "isApprovedForAll",
      "outputs": [
        {
          "internalType": "bool",
          "name": "",
          "type": "bool"
        }
      ],
      "stateMutability": "view",
      "type": "function"
    },
    {
      "inputs": [],
      "name": "isPublicMintEnabled",
      "outputs": [
        {
          "internalType": "bool",
          "name": "",
          "type": "bool"
        }
      ],
      "stateMutability": "view",
      "type": "function"
    },
    {
      "inputs": [],
      "name": "maxPerWallet",
      "outputs": [
        {
          "internalType": "uint256",
          "name": "",
          "type": "uint256"
        }
      ],
      "stateMutability": "view",
      "type": "function"
    },
    {
      "inputs": [],
      "name": "maxSupply",
      "outputs": [
        {
          "internalType": "uint256",
          "name": "",
          "type": "uint256"
        }
      ],
      "stateMutability": "view",
      "type": "function"
    },
    {
      "inputs": [
        {
          "internalType": "uint256",
          "name": "quantity_",
          "type": "uint256"
        }
      ],
      "name": "mint",
      "outputs": [],
      "stateMutability": "payable",
      "type": "function"
    },
    {
      "inputs": [],
      "name": "mintPrice",
      "outputs": [
        {
          "internalType": "uint256",
          "name": "",
          "type": "uint256"
        }
      ],
      "stateMutability": "view",
      "type": "function"
    },
    {
      "inputs": [],
      "name": "name",
      "outputs": [
        {
          "internalType": "string",
          "name": "",
          "type": "string"
        }
      ],
      "stateMutability": "view",
      "type": "function"
    },
    {
      "inputs": [],
      "name": "owner",
      "outputs": [
        {
          "internalType": "address",
          "name": "",
          "type": "address"
        }
      ],
      "stateMutability": "view",
      "type": "function"
    },
    {
      "inputs": [
        {
          "internalType": "uint256",
          "name": "tokenId",
          "type": "uint256"
        }
      ],
      "name": "ownerOf",
      "outputs": [
        {
          "internalType": "address",
          "name": "",
          "type": "address"
        }
      ],
      "stateMutability": "view",
      "type": "function"
    },
    {
      "inputs": [],
      "name": "renounceOwnership",
      "outputs": [],
      "stateMutability": "nonpayable",
      "type": "function"
    },
    {
      "inputs": [
        {
          "internalType": "address",
          "name": "from",
          "type": "address"
        },
        {
          "internalType": "address",
          "name": "to",
          "type": "address"
        },
        {
          "internalType": "uint256",
          "name": "tokenId",
          "type": "uint256"
        }
      ],
      "name": "safeTransferFrom",
      "outputs": [],
      "stateMutability": "nonpayable",
      "type": "function"
    },
    {
      "inputs": [
        {
          "internalType": "address",
          "name": "from",
          "type": "address"
        },
        {
          "internalType": "address",
          "name": "to",
          "type": "address"
        },
        {
          "internalType": "uint256",
          "name": "tokenId",
          "type": "uint256"
        },
        {
          "internalType": "bytes",
          "name": "data",
          "type": "bytes"
        }
      ],
      "name": "safeTransferFrom",
      "outputs": [],
      "stateMutability": "nonpayable",
      "type": "function"
    },
    {
      "inputs": [
        {
          "internalType": "address",
          "name": "operator",
          "type": "address"
        },
        {
          "internalType": "bool",
          "name": "approved",
          "type": "bool"
        }
      ],
      "name": "setApprovalForAll",
      "outputs": [],
      "stateMutability": "nonpayable",
      "type": "function"
    },
    {
      "inputs": [
        {
          "internalType": "string",
          "name": "baseTokenUri_",
          "type": "string"
        }
      ],
      "name": "setBaseTokenUri",
      "outputs": [],
      "stateMutability": "nonpayable",
      "type": "function"
    },
    {
      "inputs": [
        {
          "internalType": "bool",
          "name": "isPublicMintEnabled_",
          "type": "bool"
        }
      ],
      "name": "setIsPublicMintEnabled",
      "outputs": [],
      "stateMutability": "nonpayable",
      "type": "function"
    },
    {
      "inputs": [
        {
          "internalType": "bytes4",
          "name": "interfaceId",
          "type": "bytes4"
        }
      ],
      "name": "supportsInterface",
      "outputs": [
        {
          "internalType": "bool",
          "name": "",
          "type": "bool"
        }
      ],
      "stateMutability": "view",
      "type": "function"
    },
    {
      "inputs": [],
      "name": "symbol",
      "outputs": [
        {
          "internalType": "string",
          "name": "",
          "type": "string"
        }
      ],
      "stateMutability": "view",
      "type": "function"
    },
    {
      "inputs": [
        {
          "internalType": "uint256",
          "name": "tokenId_",
          "type": "uint256"
        }
      ],
      "name": "tokenURI",
      "outputs": [
        {
          "internalType": "string",
          "name": "",
          "type": "string"
        }
      ],
      "stateMutability": "view",
      "type": "function"
    },
    {
      "inputs": [],
      "name": "totalSupply",
      "outputs": [
        {
          "internalType": "uint256",
          "name": "",
          "type": "uint256"
        }
      ],
      "stateMutability": "view",
      "type": "function"
    },
    {
      "inputs": [
        {
          "internalType": "address",
          "name": "from",
          "type": "address"
        },
        {
          "internalType": "address",
          "name": "to",
          "type": "address"
        },
        {
          "internalType": "uint256",
          "name": "tokenId",
          "type": "uint256"
        }
      ],
      "name": "transferFrom",
      "outputs": [],
      "stateMutability": "nonpayable",
      "type": "function"
    },
    {
      "inputs": [
        {
          "internalType": "address",
          "name": "newOwner",
          "type": "address"
        }
      ],
      "name": "transferOwnership",
      "outputs": [],
      "stateMutability": "nonpayable",
      "type": "function"
    },
    {
      "inputs": [
        {
          "internalType": "address",
          "name": "",
          "type": "address"
        }
      ],
      "name": "walletMints",
      "outputs": [
        {
          "internalType": "uint256",
          "name": "",
          "type": "uint256"
        }
      ],
      "stateMutability": "view",
      "type": "function"
    },
    {
      "inputs": [],
      "name": "withdraw",
      "outputs": [],
      "stateMutability": "nonpayable",
      "type": "function"
    },
    {
      "inputs": [],
      "name": "withdrawWallet",
      "outputs": [
        {
          "internalType": "address payable",
          "name": "",
          "type": "address"
        }
      ],
      "stateMutability": "view",
      "type": "function"
    },
    {
      "stateMutability": "payable",
      "type": "receive"
    }
  ],
  "bytecode": "0x60806040526040518060400160405280600981526020017f526f626f50756e6b7300000000000000000000000000000000000000000000008152506040518060400160405280600281526020017f525000000000000000000000000000000000000000000000000000000000000081525081600090816200008191906200042b565b5080600190816200009391906200042b565b505050620000b6620000aa620000e360201b60201c565b620000eb60201b60201c565b66470de4df82000060078190555060006008819055506103e86009819055506003600a8190555062000512565b600033905090565b6000600660009054906101000a900473ffffffffffffffffffffffffffffffffffffffff16905081600660006101000a81548173ffffffffffffffffffffffffffffffffffffffff021916908373ffffffffffffffffffffffffffffffffffffffff1602179055508173ffffffffffffffffffffffffffffffffffffffff168173ffffffffffffffffffffffffffffffffffffffff167f8be0079c531659141344cd1fd0a4f28419497f9722a3daafe3b4186f6b6457e060405160405180910390a35050565b600081519050919050565b7f4e487b7100000000000000000000000000000000000000000000000000000000600052604160045260246000fd5b7f4e487b7100000000000000000000000000000000000000000000000000000000600052602260045260246000fd5b600060028204905060018216806200023357607f821691505b602082108103620002495762000248620001eb565b5b50919050565b60008190508160005260206000209050919050565b60006020601f8301049050919050565b600082821b905092915050565b600060088302620002b37fffffffffffffffffffffffffffffffffffffffffffffffffffffffffffffffff8262000274565b620002bf868362000274565b95508019841693508086168417925050509392505050565b6000819050919050565b6000819050919050565b60006200030c620003066200030084620002d7565b620002e1565b620002d7565b9050919050565b6000819050919050565b6200032883620002eb565b62000340620003378262000313565b84845462000281565b825550505050565b600090565b6200035762000348565b620003648184846200031d565b505050565b5b818110156200038c57620003806000826200034d565b6001810190506200036a565b5050565b601f821115620003db57620003a5816200024f565b620003b08462000264565b81016020851015620003c0578190505b620003d8620003cf8562000264565b83018262000369565b50505b505050565b600082821c905092915050565b60006200040060001984600802620003e0565b1980831691505092915050565b60006200041b8383620003ed565b9150826002028217905092915050565b6200043682620001b1565b67ffffffffffffffff811115620004525762000451620001bc565b5b6200045e82546200021a565b6200046b82828562000390565b600060209050601f831160018114620004a357600084156200048e578287015190505b6200049a85826200040d565b8655506200050a565b601f198416620004b3866200024f565b60005b82811015620004dd57848901518255600182019150602085019450602081019050620004b6565b86831015620004fd5784890151620004f9601f891682620003ed565b8355505b6001600288020188555050505b505050505050565b6136cc80620005226000396000f3fe6080604052600436106101a05760003560e01c806370a08231116100ec578063a22cb4651161008a578063d5abeb0111610064578063d5abeb011461059e578063e985e9c5146105c9578063f0293fd314610606578063f2fde38b14610643576101a7565b8063a22cb4651461050f578063b88d4fde14610538578063c87b56dd14610561576101a7565b80638da5cb5b116100c65780638da5cb5b1461047457806395652cfa1461049f57806395d89b41146104c8578063a0712d68146104f3576101a7565b806370a08231146103f5578063715018a61461043257806385d178f414610449576101a7565b80632373ac221161015957806342842e0e1161013357806342842e0e14610339578063453c2310146103625780636352211e1461038d5780636817c76c146103ca576101a7565b80632373ac22146102d057806323b872dd146102f95780633ccfd60b14610322576101a7565b80630116bc2d146101ac57806301ffc9a7146101d757806306fdde0314610214578063081812fc1461023f578063095ea7b31461027c57806318160ddd146102a5576101a7565b366101a757005b600080fd5b3480156101b857600080fd5b506101c161066c565b6040516101ce9190612047565b60405180910390f35b3480156101e357600080fd5b506101fe60048036038101906101f991906120ce565b61067f565b60405161020b9190612047565b60405180910390f35b34801561022057600080fd5b50610229610761565b604051610236919061218b565b60405180910390f35b34801561024b57600080fd5b50610266600480360381019061026191906121e3565b6107f3565b6040516102739190612251565b60405180910390f35b34801561028857600080fd5b506102a3600480360381019061029e9190612298565b610839565b005b3480156102b157600080fd5b506102ba610950565b6040516102c791906122e7565b60405180910390f35b3480156102dc57600080fd5b506102f760048036038101906102f2919061232e565b610956565b005b34801561030557600080fd5b50610320600480360381019061031b919061235b565b61097b565b005b34801561032e57600080fd5b506103376109db565b005b34801561034557600080fd5b50610360600480360381019061035b919061235b565b610ab4565b005b34801561036e57600080fd5b50610377610ad4565b60405161038491906122e7565b60405180910390f35b34801561039957600080fd5b506103b460048036038101906103af91906121e3565b610ada565b6040516103c19190612251565b60405180910390f35b3480156103d657600080fd5b506103df610b60565b6040516103ec91906122e7565b60405180910390f35b34801561040157600080fd5b5061041c600480360381019061041791906123ae565b610b66565b60405161042991906122e7565b60405180910390f35b34801561043e57600080fd5b50610447610c1d565b005b34801561045557600080fd5b5061045e610c31565b60405161046b91906123fc565b60405180910390f35b34801561048057600080fd5b50610489610c57565b6040516104969190612251565b60405180910390f35b3480156104ab57600080fd5b506104c660048036038101906104c1919061247c565b610c81565b005b3480156104d457600080fd5b506104dd610c9f565b6040516104ea919061218b565b60405180910390f35b61050d600480360381019061050891906121e3565b610d31565b005b34801561051b57600080fd5b50610536600480360381019061053191906124c9565b610f08565b005b34801561054457600080fd5b5061055f600480360381019061055a9190612639565b610f1e565b005b34801561056d57600080fd5b50610588600480360381019061058391906121e3565b610f80565b604051610595919061218b565b60405180910390f35b3480156105aa57600080fd5b506105b3610ffc565b6040516105c091906122e7565b60405180910390f35b3480156105d557600080fd5b506105f060048036038101906105eb91906126bc565b611002565b6040516105fd9190612047565b60405180910390f35b34801561061257600080fd5b5061062d600480360381019061062891906123ae565b611096565b60405161063a91906122e7565b60405180910390f35b34801561064f57600080fd5b5061066a600480360381019061066591906123ae565b6110ae565b005b600b60009054906101000a900460ff1681565b60007f80ac58cd000000000000000000000000000000000000000000000000000000007bffffffffffffffffffffffffffffffffffffffffffffffffffffffff1916827bffffffffffffffffffffffffffffffffffffffffffffffffffffffff1916148061074a57507f5b5e139f000000000000000000000000000000000000000000000000000000007bffffffffffffffffffffffffffffffffffffffffffffffffffffffff1916827bffffffffffffffffffffffffffffffffffffffffffffffffffffffff1916145b8061075a575061075982611131565b5b9050919050565b6060600080546107709061272b565b80601f016020809104026020016040519081016040528092919081815260200182805461079c9061272b565b80156107e95780601f106107be576101008083540402835291602001916107e9565b820191906000526020600020905b8154815290600101906020018083116107cc57829003601f168201915b5050505050905090565b60006107fe8261119b565b6004600083815260200190815260200160002060009054906101000a900473ffffffffffffffffffffffffffffffffffffffff169050919050565b600061084482610ada565b90508073ffffffffffffffffffffffffffffffffffffffff168373ffffffffffffffffffffffffffffffffffffffff16036108b4576040517f08c379a00000000000000000000000000000000000000000000000000000000081526004016108ab906127ce565b60405180910390fd5b8073ffffffffffffffffffffffffffffffffffffffff166108d36111e6565b73ffffffffffffffffffffffffffffffffffffffff1614806109025750610901816108fc6111e6565b611002565b5b610941576040517f08c379a000000000000000000000000000000000000000000000000000000000815260040161093890612860565b60405180910390fd5b61094b83836111ee565b505050565b60085481565b61095e6112a7565b80600b60006101000a81548160ff02191690831515021790555050565b61098c6109866111e6565b82611325565b6109cb576040517f08c379a00000000000000000000000000000000000000000000000000000000081526004016109c2906128f2565b60405180910390fd5b6109d68383836113ba565b505050565b6109e36112a7565b6000600d60009054906101000a900473ffffffffffffffffffffffffffffffffffffffff1673ffffffffffffffffffffffffffffffffffffffff1647604051610a2b90612943565b60006040518083038185875af1925050503d8060008114610a68576040519150601f19603f3d011682016040523d82523d6000602084013e610a6d565b606091505b5050905080610ab1576040517f08c379a0000000000000000000000000000000000000000000000000000000008152600401610aa8906129a4565b60405180910390fd5b50565b610acf83838360405180602001604052806000815250610f1e565b505050565b600a5481565b600080610ae6836116b3565b9050600073ffffffffffffffffffffffffffffffffffffffff168173ffffffffffffffffffffffffffffffffffffffff1603610b57576040517f08c379a0000000000000000000000000000000000000000000000000000000008152600401610b4e90612a10565b60405180910390fd5b80915050919050565b60075481565b60008073ffffffffffffffffffffffffffffffffffffffff168273ffffffffffffffffffffffffffffffffffffffff1603610bd6576040517f08c379a0000000000000000000000000000000000000000000000000000000008152600401610bcd90612aa2565b60405180910390fd5b600360008373ffffffffffffffffffffffffffffffffffffffff1673ffffffffffffffffffffffffffffffffffffffff168152602001908152602001600020549050919050565b610c256112a7565b610c2f60006116f0565b565b600d60009054906101000a900473ffffffffffffffffffffffffffffffffffffffff1681565b6000600660009054906101000a900473ffffffffffffffffffffffffffffffffffffffff16905090565b610c896112a7565b8181600c9182610c9a929190612c79565b505050565b606060018054610cae9061272b565b80601f0160208091040260200160405190810160405280929190818152602001828054610cda9061272b565b8015610d275780601f10610cfc57610100808354040283529160200191610d27565b820191906000526020600020905b815481529060010190602001808311610d0a57829003601f168201915b5050505050905090565b600b60009054906101000a900460ff16610d80576040517f08c379a0000000000000000000000000000000000000000000000000000000008152600401610d7790612d95565b60405180910390fd5b60075481610d8e9190612de4565b3414610dcf576040517f08c379a0000000000000000000000000000000000000000000000000000000008152600401610dc690612e72565b60405180910390fd5b60095481600854610de09190612e92565b1115610e21576040517f08c379a0000000000000000000000000000000000000000000000000000000008152600401610e1890612f12565b60405180910390fd5b600a5481600e60003373ffffffffffffffffffffffffffffffffffffffff1673ffffffffffffffffffffffffffffffffffffffff16815260200190815260200160002054610e6f9190612e92565b1115610eb0576040517f08c379a0000000000000000000000000000000000000000000000000000000008152600401610ea790612f7e565b60405180910390fd5b60005b81811015610f045760006001600854610ecc9190612e92565b905060086000815480929190610ee190612f9e565b9190505550610ef033826117b6565b508080610efc90612f9e565b915050610eb3565b5050565b610f1a610f136111e6565b83836117d4565b5050565b610f2f610f296111e6565b83611325565b610f6e576040517f08c379a0000000000000000000000000000000000000000000000000000000008152600401610f65906128f2565b60405180910390fd5b610f7a84848484611940565b50505050565b6060610f8b8261199c565b610fca576040517f08c379a0000000000000000000000000000000000000000000000000000000008152600401610fc190613032565b60405180910390fd5b600c610fd5836119dd565b604051602001610fe692919061315d565b6040516020818303038152906040529050919050565b60095481565b6000600560008473ffffffffffffffffffffffffffffffffffffffff1673ffffffffffffffffffffffffffffffffffffffff16815260200190815260200160002060008373ffffffffffffffffffffffffffffffffffffffff1673ffffffffffffffffffffffffffffffffffffffff16815260200190815260200160002060009054906101000a900460ff16905092915050565b600e6020528060005260406000206000915090505481565b6110b66112a7565b600073ffffffffffffffffffffffffffffffffffffffff168173ffffffffffffffffffffffffffffffffffffffff1603611125576040517f08c379a000000000000000000000000000000000000000000000000000000000815260040161111c906131fe565b60405180910390fd5b61112e816116f0565b50565b60007f01ffc9a7000000000000000000000000000000000000000000000000000000007bffffffffffffffffffffffffffffffffffffffffffffffffffffffff1916827bffffffffffffffffffffffffffffffffffffffffffffffffffffffff1916149050919050565b6111a48161199c565b6111e3576040517f08c379a00000000000000000000000000000000000000000000000000000000081526004016111da90612a10565b60405180910390fd5b50565b600033905090565b816004600083815260200190815260200160002060006101000a81548173ffffffffffffffffffffffffffffffffffffffff021916908373ffffffffffffffffffffffffffffffffffffffff160217905550808273ffffffffffffffffffffffffffffffffffffffff1661126183610ada565b73ffffffffffffffffffffffffffffffffffffffff167f8c5be1e5ebec7d5bd14f71427d1e84f3dd0314c0f7b2291e5b200ac8c7c3b92560405160405180910390a45050565b6112af6111e6565b73ffffffffffffffffffffffffffffffffffffffff166112cd610c57565b73ffffffffffffffffffffffffffffffffffffffff1614611323576040517f08c379a000000000000000000000000000000000000000000000000000000000815260040161131a9061326a565b60405180910390fd5b565b60008061133183610ada565b90508073ffffffffffffffffffffffffffffffffffffffff168473ffffffffffffffffffffffffffffffffffffffff16148061137357506113728185611002565b5b806113b157508373ffffffffffffffffffffffffffffffffffffffff16611399846107f3565b73ffffffffffffffffffffffffffffffffffffffff16145b91505092915050565b8273ffffffffffffffffffffffffffffffffffffffff166113da82610ada565b73ffffffffffffffffffffffffffffffffffffffff1614611430576040517f08c379a0000000000000000000000000000000000000000000000000000000008152600401611427906132fc565b60405180910390fd5b600073ffffffffffffffffffffffffffffffffffffffff168273ffffffffffffffffffffffffffffffffffffffff160361149f576040517f08c379a00000000000000000000000000000000000000000000000000000000081526004016114969061338e565b60405180910390fd5b6114ac8383836001611aab565b8273ffffffffffffffffffffffffffffffffffffffff166114cc82610ada565b73ffffffffffffffffffffffffffffffffffffffff1614611522576040517f08c379a0000000000000000000000000000000000000000000000000000000008152600401611519906132fc565b60405180910390fd5b6004600082815260200190815260200160002060006101000a81549073ffffffffffffffffffffffffffffffffffffffff02191690556001600360008573ffffffffffffffffffffffffffffffffffffffff1673ffffffffffffffffffffffffffffffffffffffff168152602001908152602001600020600082825403925050819055506001600360008473ffffffffffffffffffffffffffffffffffffffff1673ffffffffffffffffffffffffffffffffffffffff16815260200190815260200160002060008282540192505081905550816002600083815260200190815260200160002060006101000a81548173ffffffffffffffffffffffffffffffffffffffff021916908373ffffffffffffffffffffffffffffffffffffffff160217905550808273ffffffffffffffffffffffffffffffffffffffff168473ffffffffffffffffffffffffffffffffffffffff167fddf252ad1be2c89b69c2b068fc378daa952ba7f163c4a11628f55a4df523b3ef60405160405180910390a46116ae8383836001611ab1565b505050565b60006002600083815260200190815260200160002060009054906101000a900473ffffffffffffffffffffffffffffffffffffffff169050919050565b6000600660009054906101000a900473ffffffffffffffffffffffffffffffffffffffff16905081600660006101000a81548173ffffffffffffffffffffffffffffffffffffffff021916908373ffffffffffffffffffffffffffffffffffffffff1602179055508173ffffffffffffffffffffffffffffffffffffffff168173ffffffffffffffffffffffffffffffffffffffff167f8be0079c531659141344cd1fd0a4f28419497f9722a3daafe3b4186f6b6457e060405160405180910390a35050565b6117d0828260405180602001604052806000815250611ab7565b5050565b8173ffffffffffffffffffffffffffffffffffffffff168373ffffffffffffffffffffffffffffffffffffffff1603611842576040517f08c379a0000000000000000000000000000000000000000000000000000000008152600401611839906133fa565b60405180910390fd5b80600560008573ffffffffffffffffffffffffffffffffffffffff1673ffffffffffffffffffffffffffffffffffffffff16815260200190815260200160002060008473ffffffffffffffffffffffffffffffffffffffff1673ffffffffffffffffffffffffffffffffffffffff16815260200190815260200160002060006101000a81548160ff0219169083151502179055508173ffffffffffffffffffffffffffffffffffffffff168373ffffffffffffffffffffffffffffffffffffffff167f17307eab39ab6107e8899845ad3d59bd9653f200f220920489ca2b5937696c31836040516119339190612047565b60405180910390a3505050565b61194b8484846113ba565b61195784848484611b12565b611996576040517f08c379a000000000000000000000000000000000000000000000000000000000815260040161198d9061348c565b60405180910390fd5b50505050565b60008073ffffffffffffffffffffffffffffffffffffffff166119be836116b3565b73ffffffffffffffffffffffffffffffffffffffff1614159050919050565b6060600060016119ec84611c99565b01905060008167ffffffffffffffff811115611a0b57611a0a61250e565b5b6040519080825280601f01601f191660200182016040528015611a3d5781602001600182028036833780820191505090505b509050600082602001820190505b600115611aa0578080600190039150507f3031323334353637383961626364656600000000000000000000000000000000600a86061a8153600a8581611a9457611a936134ac565b5b04945060008503611a4b575b819350505050919050565b50505050565b50505050565b611ac18383611dec565b611ace6000848484611b12565b611b0d576040517f08c379a0000000000000000000000000000000000000000000000000000000008152600401611b049061348c565b60405180910390fd5b505050565b6000611b338473ffffffffffffffffffffffffffffffffffffffff16612009565b15611c8c578373ffffffffffffffffffffffffffffffffffffffff1663150b7a02611b5c6111e6565b8786866040518563ffffffff1660e01b8152600401611b7e9493929190613530565b6020604051808303816000875af1925050508015611bba57506040513d601f19601f82011682018060405250810190611bb79190613591565b60015b611c3c573d8060008114611bea576040519150601f19603f3d011682016040523d82523d6000602084013e611bef565b606091505b506000815103611c34576040517f08c379a0000000000000000000000000000000000000000000000000000000008152600401611c2b9061348c565b60405180910390fd5b805181602001fd5b63150b7a0260e01b7bffffffffffffffffffffffffffffffffffffffffffffffffffffffff1916817bffffffffffffffffffffffffffffffffffffffffffffffffffffffff191614915050611c91565b600190505b949350505050565b600080600090507a184f03e93ff9f4daa797ed6e38ed64bf6a1f0100000000000000008310611cf7577a184f03e93ff9f4daa797ed6e38ed64bf6a1f0100000000000000008381611ced57611cec6134ac565b5b0492506040810190505b6d04ee2d6d415b85acef81000000008310611d34576d04ee2d6d415b85acef81000000008381611d2a57611d296134ac565b5b0492506020810190505b662386f26fc100008310611d6357662386f26fc100008381611d5957611d586134ac565b5b0492506010810190505b6305f5e1008310611d8c576305f5e1008381611d8257611d816134ac565b5b0492506008810190505b6127108310611db1576127108381611da757611da66134ac565b5b0492506004810190505b60648310611dd45760648381611dca57611dc96134ac565b5b0492506002810190505b600a8310611de3576001810190505b80915050919050565b600073ffffffffffffffffffffffffffffffffffffffff168273ffffffffffffffffffffffffffffffffffffffff1603611e5b576040517f08c379a0000000000000000000000000000000000000000000000000000000008152600401611e529061360a565b60405180910390fd5b611e648161199c565b15611ea4576040517f08c379a0000000000000000000000000000000000000000000000000000000008152600401611e9b90613676565b60405180910390fd5b611eb2600083836001611aab565b611ebb8161199c565b15611efb576040517f08c379a0000000000000000000000000000000000000000000000000000000008152600401611ef290613676565b60405180910390fd5b6001600360008473ffffffffffffffffffffffffffffffffffffffff1673ffffffffffffffffffffffffffffffffffffffff16815260200190815260200160002060008282540192505081905550816002600083815260200190815260200160002060006101000a81548173ffffffffffffffffffffffffffffffffffffffff021916908373ffffffffffffffffffffffffffffffffffffffff160217905550808273ffffffffffffffffffffffffffffffffffffffff16600073ffffffffffffffffffffffffffffffffffffffff167fddf252ad1be2c89b69c2b068fc378daa952ba7f163c4a11628f55a4df523b3ef60405160405180910390a4612005600083836001611ab1565b5050565b6000808273ffffffffffffffffffffffffffffffffffffffff163b119050919050565b60008115159050919050565b6120418161202c565b82525050565b600060208201905061205c6000830184612038565b92915050565b6000604051905090565b600080fd5b600080fd5b60007fffffffff0000000000000000000000000000000000000000000000000000000082169050919050565b6120ab81612076565b81146120b657600080fd5b50565b6000813590506120c8816120a2565b92915050565b6000602082840312156120e4576120e361206c565b5b60006120f2848285016120b9565b91505092915050565b600081519050919050565b600082825260208201905092915050565b60005b8381101561213557808201518184015260208101905061211a565b60008484015250505050565b6000601f19601f8301169050919050565b600061215d826120fb565b6121678185612106565b9350612177818560208601612117565b61218081612141565b840191505092915050565b600060208201905081810360008301526121a58184612152565b905092915050565b6000819050919050565b6121c0816121ad565b81146121cb57600080fd5b50565b6000813590506121dd816121b7565b92915050565b6000602082840312156121f9576121f861206c565b5b6000612207848285016121ce565b91505092915050565b600073ffffffffffffffffffffffffffffffffffffffff82169050919050565b600061223b82612210565b9050919050565b61224b81612230565b82525050565b60006020820190506122666000830184612242565b92915050565b61227581612230565b811461228057600080fd5b50565b6000813590506122928161226c565b92915050565b600080604083850312156122af576122ae61206c565b5b60006122bd85828601612283565b92505060206122ce858286016121ce565b9150509250929050565b6122e1816121ad565b82525050565b60006020820190506122fc60008301846122d8565b92915050565b61230b8161202c565b811461231657600080fd5b50565b60008135905061232881612302565b92915050565b6000602082840312156123445761234361206c565b5b600061235284828501612319565b91505092915050565b6000806000606084860312156123745761237361206c565b5b600061238286828701612283565b935050602061239386828701612283565b92505060406123a4868287016121ce565b9150509250925092565b6000602082840312156123c4576123c361206c565b5b60006123d284828501612283565b91505092915050565b60006123e682612210565b9050919050565b6123f6816123db565b82525050565b600060208201905061241160008301846123ed565b92915050565b600080fd5b600080fd5b600080fd5b60008083601f84011261243c5761243b612417565b5b8235905067ffffffffffffffff8111156124595761245861241c565b5b60208301915083600182028301111561247557612474612421565b5b9250929050565b600080602083850312156124935761249261206c565b5b600083013567ffffffffffffffff8111156124b1576124b0612071565b5b6124bd85828601612426565b92509250509250929050565b600080604083850312156124e0576124df61206c565b5b60006124ee85828601612283565b92505060206124ff85828601612319565b9150509250929050565b600080fd5b7f4e487b7100000000000000000000000000000000000000000000000000000000600052604160045260246000fd5b61254682612141565b810181811067ffffffffffffffff821117156125655761256461250e565b5b80604052505050565b6000612578612062565b9050612584828261253d565b919050565b600067ffffffffffffffff8211156125a4576125a361250e565b5b6125ad82612141565b9050602081019050919050565b82818337600083830152505050565b60006125dc6125d784612589565b61256e565b9050828152602081018484840111156125f8576125f7612509565b5b6126038482856125ba565b509392505050565b600082601f8301126126205761261f612417565b5b81356126308482602086016125c9565b91505092915050565b600080600080608085870312156126535761265261206c565b5b600061266187828801612283565b945050602061267287828801612283565b9350506040612683878288016121ce565b925050606085013567ffffffffffffffff8111156126a4576126a3612071565b5b6126b08782880161260b565b91505092959194509250565b600080604083850312156126d3576126d261206c565b5b60006126e185828601612283565b92505060206126f285828601612283565b9150509250929050565b7f4e487b7100000000000000000000000000000000000000000000000000000000600052602260045260246000fd5b6000600282049050600182168061274357607f821691505b602082108103612756576127556126fc565b5b50919050565b7f4552433732313a20617070726f76616c20746f2063757272656e74206f776e6560008201527f7200000000000000000000000000000000000000000000000000000000000000602082015250565b60006127b8602183612106565b91506127c38261275c565b604082019050919050565b600060208201905081810360008301526127e7816127ab565b9050919050565b7f4552433732313a20617070726f76652063616c6c6572206973206e6f7420746f60008201527f6b656e206f776e6572206f7220617070726f76656420666f7220616c6c000000602082015250565b600061284a603d83612106565b9150612855826127ee565b604082019050919050565b600060208201905081810360008301526128798161283d565b9050919050565b7f4552433732313a2063616c6c6572206973206e6f7420746f6b656e206f776e6560008201527f72206f7220617070726f76656400000000000000000000000000000000000000602082015250565b60006128dc602d83612106565b91506128e782612880565b604082019050919050565b6000602082019050818103600083015261290b816128cf565b9050919050565b600081905092915050565b50565b600061292d600083612912565b91506129388261291d565b600082019050919050565b600061294e82612920565b9150819050919050565b7f7769746864726177206661696c65640000000000000000000000000000000000600082015250565b600061298e600f83612106565b915061299982612958565b602082019050919050565b600060208201905081810360008301526129bd81612981565b9050919050565b7f4552433732313a20696e76616c696420746f6b656e2049440000000000000000600082015250565b60006129fa601883612106565b9150612a05826129c4565b602082019050919050565b60006020820190508181036000830152612a29816129ed565b9050919050565b7f4552433732313a2061646472657373207a65726f206973206e6f74206120766160008201527f6c6964206f776e65720000000000000000000000000000000000000000000000602082015250565b6000612a8c602983612106565b9150612a9782612a30565b604082019050919050565b60006020820190508181036000830152612abb81612a7f565b9050919050565b600082905092915050565b60008190508160005260206000209050919050565b60006020601f8301049050919050565b600082821b905092915050565b600060088302612b2f7fffffffffffffffffffffffffffffffffffffffffffffffffffffffffffffffff82612af2565b612b398683612af2565b95508019841693508086168417925050509392505050565b6000819050919050565b6000612b76612b71612b6c846121ad565b612b51565b6121ad565b9050919050565b6000819050919050565b612b9083612b5b565b612ba4612b9c82612b7d565b848454612aff565b825550505050565b600090565b612bb9612bac565b612bc4818484612b87565b505050565b5b81811015612be857612bdd600082612bb1565b600181019050612bca565b5050565b601f821115612c2d57612bfe81612acd565b612c0784612ae2565b81016020851015612c16578190505b612c2a612c2285612ae2565b830182612bc9565b50505b505050565b600082821c905092915050565b6000612c5060001984600802612c32565b1980831691505092915050565b6000612c698383612c3f565b9150826002028217905092915050565b612c838383612ac2565b67ffffffffffffffff811115612c9c57612c9b61250e565b5b612ca6825461272b565b612cb1828285612bec565b6000601f831160018114612ce05760008415612cce578287013590505b612cd88582612c5d565b865550612d40565b601f198416612cee86612acd565b60005b82811015612d1657848901358255600182019150602085019450602081019050612cf1565b86831015612d335784890135612d2f601f891682612c3f565b8355505b6001600288020188555050505b50505050505050565b7f6d696e74696e67206e6f7420656e61626c656400000000000000000000000000600082015250565b6000612d7f601383612106565b9150612d8a82612d49565b602082019050919050565b60006020820190508181036000830152612dae81612d72565b9050919050565b7f4e487b7100000000000000000000000000000000000000000000000000000000600052601160045260246000fd5b6000612def826121ad565b9150612dfa836121ad565b9250828202612e08816121ad565b91508282048414831517612e1f57612e1e612db5565b5b5092915050565b7f77726f6e67206d696e742076616c756500000000000000000000000000000000600082015250565b6000612e5c601083612106565b9150612e6782612e26565b602082019050919050565b60006020820190508181036000830152612e8b81612e4f565b9050919050565b6000612e9d826121ad565b9150612ea8836121ad565b9250828201905080821115612ec057612ebf612db5565b5b92915050565b7f736f6c64206f7574000000000000000000000000000000000000000000000000600082015250565b6000612efc600883612106565b9150612f0782612ec6565b602082019050919050565b60006020820190508181036000830152612f2b81612eef565b9050919050565b7f657863656564206d61782077616c6c6574000000000000000000000000000000600082015250565b6000612f68601183612106565b9150612f7382612f32565b602082019050919050565b60006020820190508181036000830152612f9781612f5b565b9050919050565b6000612fa9826121ad565b91507fffffffffffffffffffffffffffffffffffffffffffffffffffffffffffffffff8203612fdb57612fda612db5565b5b600182019050919050565b7f546f6b656e20646f6573206e6f74206578697374210000000000000000000000600082015250565b600061301c601583612106565b915061302782612fe6565b602082019050919050565b6000602082019050818103600083015261304b8161300f565b9050919050565b600081905092915050565b6000815461306a8161272b565b6130748186613052565b9450600182166000811461308f57600181146130a4576130d7565b60ff19831686528115158202860193506130d7565b6130ad85612acd565b60005b838110156130cf578154818901526001820191506020810190506130b0565b838801955050505b50505092915050565b60006130eb826120fb565b6130f58185613052565b9350613105818560208601612117565b80840191505092915050565b7f2e6a736f6e000000000000000000000000000000000000000000000000000000600082015250565b6000613147600583613052565b915061315282613111565b600582019050919050565b6000613169828561305d565b915061317582846130e0565b91506131808261313a565b91508190509392505050565b7f4f776e61626c653a206e6577206f776e657220697320746865207a65726f206160008201527f6464726573730000000000000000000000000000000000000000000000000000602082015250565b60006131e8602683612106565b91506131f38261318c565b604082019050919050565b60006020820190508181036000830152613217816131db565b9050919050565b7f4f776e61626c653a2063616c6c6572206973206e6f7420746865206f776e6572600082015250565b6000613254602083612106565b915061325f8261321e565b602082019050919050565b6000602082019050818103600083015261328381613247565b9050919050565b7f4552433732313a207472616e736665722066726f6d20696e636f72726563742060008201527f6f776e6572000000000000000000000000000000000000000000000000000000602082015250565b60006132e6602583612106565b91506132f18261328a565b604082019050919050565b60006020820190508181036000830152613315816132d9565b9050919050565b7f4552433732313a207472616e7366657220746f20746865207a65726f2061646460008201527f7265737300000000000000000000000000000000000000000000000000000000602082015250565b6000613378602483612106565b91506133838261331c565b604082019050919050565b600060208201905081810360008301526133a78161336b565b9050919050565b7f4552433732313a20617070726f766520746f2063616c6c657200000000000000600082015250565b60006133e4601983612106565b91506133ef826133ae565b602082019050919050565b60006020820190508181036000830152613413816133d7565b9050919050565b7f4552433732313a207472616e7366657220746f206e6f6e20455243373231526560008201527f63656976657220696d706c656d656e7465720000000000000000000000000000602082015250565b6000613476603283612106565b91506134818261341a565b604082019050919050565b600060208201905081810360008301526134a581613469565b9050919050565b7f4e487b7100000000000000000000000000000000000000000000000000000000600052601260045260246000fd5b600081519050919050565b600082825260208201905092915050565b6000613502826134db565b61350c81856134e6565b935061351c818560208601612117565b61352581612141565b840191505092915050565b60006080820190506135456000830187612242565b6135526020830186612242565b61355f60408301856122d8565b818103606083015261357181846134f7565b905095945050505050565b60008151905061358b816120a2565b92915050565b6000602082840312156135a7576135a661206c565b5b60006135b58482850161357c565b91505092915050565b7f4552433732313a206d696e7420746f20746865207a65726f2061646472657373600082015250565b60006135f4602083612106565b91506135ff826135be565b602082019050919050565b60006020820190508181036000830152613623816135e7565b9050919050565b7f4552433732313a20746f6b656e20616c7265616479206d696e74656400000000600082015250565b6000613660601c83612106565b915061366b8261362a565b602082019050919050565b6000602082019050818103600083015261368f81613653565b905091905056fea2646970667358221220c205e7045e693972b4740818365fc702187e174208ae677eedd1d740a5e2388a64736f6c63430008120033",
  "linkReferences": {},
  "deployedLinkReferences": {}
}